:100000000C9434000C9460000C9460000C9460001C
:100010000C9460000C9460000C9460000C946000E0
:100020000C9460000C9460000C9460000C946000D0
:100030000C9460000C9460000C94A5000C9460007B
:100040000C9460000C9460000C9460000C946000B0
:100050000C9460000C9460000C9460000C946000A0
:100060000C9460000C94600011241FBECFEFD8E008
:10007000DEBFCDBF84B78093200114BE0FB6F894C5
:10008000A895809160008861809360001092600064
:100090000FBE11E0A0E0B1E0E6EEF7E002C005908F
:1000A0000D92A431B107D9F721E0A4E1B1E001C07C
:1000B0001D92A032B207E1F70E9406030C94F103EF
:1000C0000C940000282FFB018695382F3695380FA9
:1000D000832F82958F70380F932F969596959695CE
:1000E000387F231B892F880F281B86EF820F31E072
:1000F000390F2A3008F0932F2A3008F0282F208358
:10010000292F2695822F8695280F822F82958F7012
:10011000280F822F869586958695287F921B282FFB
:10012000220F921B26EF290F31E0380F9A3008F08A
:10013000832F9A3008F0922F918396EF980F8A3090
:1001400008F0892F8283CF0108951F920F920FB676
:100150000F9211248F93809119018260809319016D
:100160008091190181608093190180910201815071
:100170008093020180910201811108C080911901D0
:1001800084608093190184E6809302018F910F901F
:100190000FBE0F901F9018958BB1806F8BB984B1F3
:1001A000836084B984B18C6284B980E58CBD92E0AF
:1001B00094BD15BC85B5826085BD89EF87BD9093E0
:1001C0006E0081E090E00E94DB0380931F0180E0DD
:1001D00090E00E94DB0380931A017894089521E057
:1001E00030E001C0220F8A95EAF720952EBD0DB4AC
:1001F00007FEFDCF6EBD0DB407FEFDCF2A9A2A98EB
:100200000895813051F1C8F0823019F0833089F0BF
:10021000089565FD11C084E6809302018091190163
:100220008B7F8093190180911A018093150183E0DF
:10023000089565FF26C082E0089565FFFDCF84E63E
:1002400080930201809119018D7F80931901809123
:100250001F018093150181E0089565FF1AC09091F8
:100260001501911101C082E02091190122FFE4CF14
:10027000209119012B7F2093190191509093150122
:1002800008959091190192FD06C090911501911168
:10029000D3CF80E00895909119019B7F909319012D
:1002A00090911501915090931501F1CF0F931F93E9
:1002B000CF93DF9300D01F92CDB7DEB7182F909168
:1002C0000001933009F4D6C0D0F5913009F491C003
:1002D000923009F060C000911F01BE016F5F7F4F37
:1002E000802F0E946200043608F460C1EA81F0E0C9
:1002F000ED5FFE4F8081806880931C01EB81F0E010
:10030000ED5FFE4F808180931B0110921E011092C1
:100310001D0113FFF4C080911F01803F08F4E9C064
:100320008AEF80931F0114FF04C08AEF8A508093E4
:100330001F0110FF2EC011FF49C104E01CC0943002
:1003400009F443C0953039F510921B0186E480937F
:100350001C0187E780931D0189E780931E0110FF30
:10036000F1C004E011FD01E015FF2DC085E0809390
:100370001401002391F000930001109214012898B9
:1003800029980F900F900F90DF91CF911F910F91AF
:10039000089511FDD2CF80911401982F9B7F61F0B9
:1003A000289A823069F7299A0F900F900F90DF9169
:1003B000CF911F910F91089528988230A1F3843036
:1003C000F9F6299AF1CF80E0D2CF10921B0186E78F
:1003D00080931C0187E680931D018EE780931E01A8
:1003E00010FFAEC005E011FD01E015FFECCF84E089
:1003F000BECF00911F01BE016F5F7F4F802F0E9413
:100400006200043608F4C2C0EA81F0E0ED5FFE4FFE
:100410008081806880931C01EB81F0E0ED5FFE4FEE
:10042000808180931B0100911A01BE016F5F7F4F95
:10043000802F0E946200043608F498C0EA81F0E040
:10044000ED5FFE4F8081806880931E01EB81F0E0BC
:10045000ED5FFE4F808180931D0110FF75C002E0AB
:1004600011FD04E0612F809114010E94010180932D
:1004700014017FCF10921C0110921B0100911A01F0
:10048000BE016F5F7F4F802F0E946200043608F428
:100490005DC0EA81F0E0ED5FFE4F8081806880936F
:1004A0001E01EB81F0E0ED5FFE4F808180931D0126
:1004B00013FF39C080911A01803F78F18AEF809351
:1004C0001A0114FF04C08AEF8A5080931A0110FDAC
:1004D00085C011FF60CF81E090E00E94DB03809334
:1004E0001F0180E090E00E94DB0380931A0101E08D
:1004F00042CF843608F482C0865F80931F0114FFC8
:1005000018CF80911F01863008F465C0853608F049
:100510000DCF855080931F010CCF843608F472C034
:10052000865F80931A0114FFD2CF80911A01863022
:1005300008F44EC0853640F6855080931A01C7CF27
:1005400000E051CF00E00ECF00E08ACFE981F0E07B
:10055000ED5FFE4F808180931E01EA81F0E0ED5F48
:10056000FE4F8081806880931D01A2CFE981F0E079
:10057000ED5FFE4F808180931E01EA81F0E0ED5F28
:10058000FE4F8081806880931D0167CFE981F0E094
:10059000ED5FFE4F808180931C01EA81F0E0ED5F0A
:1005A000FE4F8081806880931B013DCFE981F0E0A0
:1005B000ED5FFE4F808180931C01EA81F0E0ED5FEA
:1005C000FE4F8081806880931B019FCE03E0D3CED5
:1005D00010921A017CCF10921F01ABCE60911F01C7
:1005E00081E090E00E94E30360911A0180E090E0D6
:1005F0000E94E30311FD6FCF01E0BDCE8B5F8093BE
:100600001F017DCF8B5F80931A018DCF0E94CC009C
:1006100069E480E00E94EF002FE78AE196E0215034
:1006200080409040E1F700C00000C0E001E010E031
:100630008091190180FD3FC08091190181FFF8CFA1
:10064000809119018D7F809319014E9953C020919B
:10065000170130911801283E83E0380709F4A1C042
:10066000283893E1390709F494C008F4A2C080E067
:100670004F9B806299B1907320910101203209F45F
:1006800078C0203309F46AC0222309F445C09033AE
:1006900009F489C0911105C02091160121502093C1
:1006A00016019093010182FD4AC00E94560180917B
:1006B000190180FFC1CF809119018E7F80931901AC
:1006C000EC2FF0E0E55EFE4F2081C8010C2E01C04A
:1006D000880F0A94EAF780958EBD0DB407FEFDCF12
:1006E0002EBD0DB407FEFDCF2A9A2A98CC2391F097
:1006F000C150A2CF20911701309118012B50310920
:1007000081E02D3D334008F080E0109218011092F6
:100710001701AECFC4E090CF903129F1903209F4A7
:10072000BBCF90930101903309F0BDCF209116010A
:1007300012165CF588601092160182FFB6CF67E44E
:1007400080E00E94EF0098E088E10FB6F894A89549
:10075000809360000FBE90936000FFCF903219F03D
:100760009031F9F699CF209116012F5F2093160151
:1007700098CF9923C1F3903309F093CF20911601BC
:100780002150909301011216ACF22223A1F2806154
:10079000D2CF84E02F5F3F4F309318012093170191
:1007A00067CF82E0F7CF209116012F5F9093010170
:1007B000BFCF80E0EFCFF999FECF92BD81BDF89A0F
:1007C000992780B50895262FF999FECF1FBA92BDBB
:1007D00081BD20BD0FB6F894FA9AF99A0FBE019622
:0607E0000895F894FFCF1C
:1007E6000130647E306D79335B5F707F7B771F4E9F
:0407F6003D4F47002C
:00000001FF
